:020000040000FA
:0400000000000000FC
:04000100B102E3085D
:04000200B182E308DC
:04000300B1C4548CA4
:04000400B202E30859
:04000500B2239BCABD
:04000600B244548C20
:04000700B2650D4E83
:04000800B282E308D5
:04000900B2933F6906
:04000A00B2A39BCA38
:04000B00B2B3F82B69
:04000C00B2C4548C9A
:04000D0034F2B4F124
:04000E00B2E50D4EFC
:04000F0034F0A965BB
:04001000B302E3084C
:0400110034EE9DD854
:04001200B3133F697C
:0400130034EC924CEB
:04001400B3239BCAAD
:0400150034EA86C083
:04001600B333F82BDD
:0400170034E87B341A
:04001800B344548C0D
:04001900B50CC82B2F
:04001A003572B4F196
:04001B0034E4641C49
:04001C00B3650D4E6D
:04001D00B50ED3B792
:04001E003570A9652B
:04001F0034E04D0379
:04002000B382E308BC
:04002100B510DF44F3
:04002200356E9DD8C2
:0400230034DC35EBA9
:04002400B3933F69EA
:04002500B512EAD056
:04002600356C924C57
:0400270034D81ED3D8
:04002800B3A39BCA19
:04002900B514F65CB8
:04002A00356A86C0ED
:04002B0034D407BB07
:04002C00B3B3F82B47
:04002D00B51701E81A
:04002E0035687B3482
:04002F00B5CC03D772
:04003000B3C4548C75
:0400310035B3794525
:04003200B58CC82B96
:0400330034CBD98A67
:0400340035F2B4F1FC
:04003500B51B1900DE
:040036003564641CAD
:04003700B5CE0F63D0
:04003800B3E50D4ED1
:0400390035B16DB9B7
:04003A00B58ED3B7F5
:04003B0034C3AB5AC5
:04003C0035F0A9658D
:04003D00B51F3019A2
:04003E0035604D03D9
:04003F00B5D01AEF2F
:04004000B402E3081B
:0400410035AF622D48
:04004200B590DF4452
:0400430034BB7D2924
:0400440035EE9DD820
:04004500B523473167
:04004600355C35EB05
:04004700B5D2267B8D
:04004800B4133F6945
:0400490035AD56A1DA
:04004A00B592EAD0B1
:04004B0034B34EF983
:04004C0035EC924CB1
:04004D00B5275E492C
:04004E0035581ED330
:04004F00B5D43207EB
:04005000B4239BCA70
:0400510035AB4B156B
:04005200B594F65C0F
:0400530034AB20C8E2
:0400540035EA86C043
:04005500B52B7561F1
:04005600355407BB5B
:04005700B5D63D934A
:04005800B433F82B9A
:0400590035A93F89FD
:04005A00B59701E86D
:04005B0034A2F29841
:04005C0035E87B34D4
:04005D0036541CE118
:04005E00B64C03D7C2
:04005F00B5D84920A7
:04006000B444548CC4
:0400610035A733FC90
:040062003633794573
:04006300B66CA7735D
:04006400B60CC82BE3
:04006500B533A3927A
:04006600354BD98AB3
:040067003612D5A9CF
:040068003672B4F147
:04006900B62D6BC77E
:04006A00B59B190029
:04006B0034929636FF
:04006C0035E4641CF7
:04006D0036521155A1
:04006E00B64E0F6318
:04006F00B5DC603864
:04007000B4650D4E18
:0400710035A31CE4B3
:0400720036316DB9FD
:04007300B66EB2FFB4
:04007400B60ED3B73A
:04007500B53BD1C204
:040076003543AB5A09
:040077003610CA1D58
:040078003670A965D0
:04007900B62F7753D4
:04007A00B59F3019E5
:04007B00348239D5BD
:04007C0035E04D031B
:04007D00365005C92B
:04007E00B6501AEF6F
:04007F00B5E0775021
:040080003482E308DB
:0400810035E077509F
:0400820036501AEFEB
:04008300B65005C9A5
:04008400B5E04D0393
:04008500B48239D533
:04008600359F301959
:04008700362F775346
:04008800B670A96540
:04008900B610CA1DC6
:04008A00B543AB5A75
:04008B00353BD1C26E
:04008C00360ED3B7A2
:04008D00366EB2FF1A
:04008E00B6316DB961
:04008F00B5A31CE415
:0400900034650D4E78
:0400910035DC6038C2
:04009200364E0F6374
:04009300B6521155FB
:04009400B5E4641C4F
:04009500B492963655
:04009600359B19007D
:04009700362D6BC7D0
:04009800B672B4F197
:04009900B612D5A91D
:04009A00B54BD98AFF
:04009B003533A392C4
:04009C00360CC82B2B
:04009D00366CA773A3
:04009E00B6337945B7
:04009F00B5A733FCD2
:0400A0003444548C04
:0400A10035D84920E5
:0400A200364C03D7FE
:0400A300B6541CE152
:0400A400B5E87B340C
:0400A500B4A2F29877
:0400A600359701E8A1
:0400A700B5A93F892F
:0400A8003433F82BCA
:0400A90035D63D9378
:0400AA00B55407BB87
:0400AB00352B75611B
:0400AC00B5EA86C06B
:0400AD00B4AB20C808
:0400AE003594F65C33
:0400AF00B5AB4B158D
:0400B00034239BCA90
:0400B10035D4320709
:0400B200B5581ED34C
:0400B30035275E4946
:0400B400B5EC924CC9
:0400B500B4B34EF999
:0400B6003592EAD0C5
:0400B700B5AD56A1EC
:0400B80034133F6955
:0400B90035D2267B9B
:0400BA00B55C35EB11
:0400BB003523473171
:0400BC00B5EE9DD828
:0400BD00B4BB7D292A
:0400BE003590DF4456
:0400BF00B5AF622D4A
:0400C0003402E3081B
:0400C10035D01AEF2D
:0400C200B5604D03D5
:0400C300351F30199C
:0400C400B5F0A96585
:0400C500B4C3AB5ABB
:0400C600358ED3B7E9
:0400C700B5B16DB9A9
:0400C80033E50D4EC1
:0400C90035CE0F63BE
:0400CA00B564641C99
:0400CB00351B1900C8
:0400CC00B5F2B4F1E4
:0400CD00B4CBD98A4D
:0400CE00358CC82B7A
:0400CF00B5B3794507
:0400D00033C4548C55
:0400D10035CC03D750
:0400D200B5687B345E
:0400D300351701E8F4
:0400D40033B3F82B1F
:0400D500B4D407BBDD
:0400D600B56A86C0C1
:0400D7003514F65C8A
:0400D80033A39BCAE9
:0400D900B4D81ED3A6
:0400DA00B56C924C23
:0400DB003512EAD020
:0400DC0033933F69B2
:0400DD00B4DC35EB6F
:0400DE00B56E9DD886
:0400DF003510DF44B5
:0400E0003382E3087C
:0400E100B4E04D0337
:0400E200B570A965E7
:0400E300350ED3B74C
:0400E40033650D4E25
:0400E500B4E4641CFF
:0400E600B572B4F14A
:0400E700350CC82BE1
:0400E8003344548CBD
:0400E900B4E87B34C8
:0400EA003333F82B89
:0400EB00B4EA86C02D
:0400EC0033239BCA55
:0400ED00B4EC924C91
:0400EE0033133F6920
:0400EF00B4EE9DD8F6
:0400F0003302E308EC
:0400F100B4F0A96559
:0400F20032E50D4E98
:0400F300B4F2B4F1BE
:0400F40032C4548C32
:0400F50032B3F82BFF
:0400F60032A39BCACC
:0400F70032933F6998
:0400F8003282E30865
:0400F90032650D4E11
:0400FA003244548CAC
:0400FB0032239BCA47
:0400FC003202E308E1
:0400FD0031C4548C2A
:0400FE003182E30860
:0400FF003102E308DF
:00000001ff
